{
  "_format": "hh-sol-artifact-1",
  "contractName": "Election",
  "sourceName": "contracts/Election.sol",
  "abi": [
    {
      "inputs": [],
      "stateMutability": "nonpayable",
      "type": "constructor"
    },
    {
      "anonymous": false,
      "inputs": [
        {
          "indexed": true,
          "internalType": "uint256",
          "name": "_candidateId",
          "type": "uint256"
        }
      ],
      "name": "Voted",
      "type": "event"
    },
    {
      "inputs": [
        {
          "internalType": "string",
          "name": "_name",
          "type": "string"
        }
      ],
      "name": "addCandidate",
      "outputs": [],
      "stateMutability": "nonpayable",
      "type": "function"
    },
    {
      "inputs": [
        {
          "internalType": "address",
          "name": "_voter",
          "type": "address"
        }
      ],
      "name": "addVoter",
      "outputs": [],
      "stateMutability": "nonpayable",
      "type": "function"
    },
    {
      "inputs": [],
      "name": "candidatesCount",
      "outputs": [
        {
          "internalType": "uint256",
          "name": "",
          "type": "uint256"
        }
      ],
      "stateMutability": "view",
      "type": "function"
    },
    {
      "inputs": [],
      "name": "electionState",
      "outputs": [
        {
          "internalType": "enum Election.State",
          "name": "",
          "type": "uint8"
        }
      ],
      "stateMutability": "view",
      "type": "function"
    },
    {
      "inputs": [],
      "name": "endElection",
      "outputs": [],
      "stateMutability": "nonpayable",
      "type": "function"
    },
    {
      "inputs": [
        {
          "internalType": "uint256",
          "name": "_candidateId",
          "type": "uint256"
        }
      ],
      "name": "getCandidateDetails",
      "outputs": [
        {
          "internalType": "string",
          "name": "",
          "type": "string"
        },
        {
          "internalType": "uint256",
          "name": "",
          "type": "uint256"
        }
      ],
      "stateMutability": "view",
      "type": "function"
    },
    {
      "inputs": [
        {
          "internalType": "address",
          "name": "_current",
          "type": "address"
        }
      ],
      "name": "getRole",
      "outputs": [
        {
          "internalType": "uint256",
          "name": "",
          "type": "uint256"
        }
      ],
      "stateMutability": "view",
      "type": "function"
    },
    {
      "inputs": [
        {
          "internalType": "address",
          "name": "_addr",
          "type": "address"
        }
      ],
      "name": "hasVoted",
      "outputs": [
        {
          "internalType": "bool",
          "name": "",
          "type": "bool"
        }
      ],
      "stateMutability": "view",
      "type": "function"
    },
    {
      "inputs": [],
      "name": "owner",
      "outputs": [
        {
          "internalType": "address",
          "name": "",
          "type": "address"
        }
      ],
      "stateMutability": "view",
      "type": "function"
    },
    {
      "inputs": [],
      "name": "startElection",
      "outputs": [],
      "stateMutability": "nonpayable",
      "type": "function"
    },
    {
      "inputs": [
        {
          "internalType": "uint256",
          "name": "_candidateId",
          "type": "uint256"
        }
      ],
      "name": "vote",
      "outputs": [],
      "stateMutability": "nonpayable",
      "type": "function"
    },
    {
      "inputs": [],
      "name": "votersCount",
      "outputs": [
        {
          "internalType": "uint256",
          "name": "",
          "type": "uint256"
        }
      ],
      "stateMutability": "view",
      "type": "function"
    }
  ],
  "bytecode": "0x6080604052600060045560006005553480156200001b57600080fd5b50336000806101000a81548173ffffffffffffffffffffffffffffffffffffffff021916908373ffffffffffffffffffffffffffffffffffffffff16021790555060008060146101000a81548160ff02191690836002811115620000845762000083620002f0565b5b0217905550620000cf6040518060400160405280600b81526020017f43616e64696461746520310000000000000000000000000000000000000000008152506200016160201b60201c565b620001156040518060400160405280600b81526020017f43616e64696461746520320000000000000000000000000000000000000000008152506200016160201b60201c565b6200015b6040518060400160405280600b81526020017f43616e64696461746520330000000000000000000000000000000000000000008152506200016160201b60201c565b620007f1565b3373ffffffffffffffffffffffffffffffffffffffff1660008054906101000a900473ffffffffffffffffffffffffffffffffffffffff1673ffffffffffffffffffffffffffffffffffffffff1614620001f2576040517f08c379a0000000000000000000000000000000000000000000000000000000008152600401620001e99062000380565b60405180910390fd5b60006002811115620002095762000208620002f0565b5b600060149054906101000a900460ff1660028111156200022e576200022d620002f0565b5b1462000271576040517f08c379a00000000000000000000000000000000000000000000000000000000081526004016200026890620003f2565b60405180910390fd5b604051806060016040528060045481526020018281526020016000815250600160006004548152602001908152602001600020600082015181600001556020820151816001019081620002c591906200068e565b506040820151816002015590505060046000815480929190620002e890620007a4565b919050555050565b7f4e487b7100000000000000000000000000000000000000000000000000000000600052602160045260246000fd5b600082825260208201905092915050565b7f4f6e6c79206f776e65722063616e206164642063616e64696461746573000000600082015250565b600062000368601d836200031f565b9150620003758262000330565b602082019050919050565b600060208201905081810360008301526200039b8162000359565b9050919050565b7f456c656374696f6e2068617320616c7265616479207374617274656400000000600082015250565b6000620003da601c836200031f565b9150620003e782620003a2565b602082019050919050565b600060208201905081810360008301526200040d81620003cb565b9050919050565b600081519050919050565b7f4e487b7100000000000000000000000000000000000000000000000000000000600052604160045260246000fd5b7f4e487b7100000000000000000000000000000000000000000000000000000000600052602260045260246000fd5b600060028204905060018216806200049657607f821691505b602082108103620004ac57620004ab6200044e565b5b50919050565b60008190508160005260206000209050919050565b60006020601f8301049050919050565b600082821b905092915050565b600060088302620005167fffffffffffffffffffffffffffffffffffffffffffffffffffffffffffffffff82620004d7565b620005228683620004d7565b95508019841693508086168417925050509392505050565b6000819050919050565b6000819050919050565b60006200056f6200056962000563846200053a565b62000544565b6200053a565b9050919050565b6000819050919050565b6200058b836200054e565b620005a36200059a8262000576565b848454620004e4565b825550505050565b600090565b620005ba620005ab565b620005c781848462000580565b505050565b5b81811015620005ef57620005e3600082620005b0565b600181019050620005cd565b5050565b601f8211156200063e576200060881620004b2565b6200061384620004c7565b8101602085101562000623578190505b6200063b6200063285620004c7565b830182620005cc565b50505b505050565b600082821c905092915050565b6000620006636000198460080262000643565b1980831691505092915050565b60006200067e838362000650565b9150826002028217905092915050565b620006998262000414565b67ffffffffffffffff811115620006b557620006b46200041f565b5b620006c182546200047d565b620006ce828285620005f3565b600060209050601f831160018114620007065760008415620006f1578287015190505b620006fd858262000670565b8655506200076d565b601f1984166200071686620004b2565b60005b82811015620007405784890151825560018201915060208501945060208101905062000719565b868310156200076057848901516200075c601f89168262000650565b8355505b6001600288020188555050505b505050505050565b7f4e487b7100000000000000000000000000000000000000000000000000000000600052601160045260246000fd5b6000620007b1826200053a565b91507fffffffffffffffffffffffffffffffffffffffffffffffffffffffffffffffff8203620007e657620007e562000775565b5b600182019050919050565b6117fe80620008016000396000f3fe608060405234801561001057600080fd5b50600436106100b45760003560e01c8063462e91ec11610071578063462e91ec146101a257806359f78468146101be57806362d73eb8146101c85780638da5cb5b146101d257806398c07938146101f0578063f4ab9adf1461020e576100b4565b80630121b93f146100b957806309eef43e146100d55780632280043d1461010557806327f9fd50146101235780632d35a8a2146101545780634427673314610172575b600080fd5b6100d360048036038101906100ce9190610c6f565b61022a565b005b6100ef60048036038101906100ea9190610cfa565b6104be565b6040516100fc9190610d42565b60405180910390f35b61010d610514565b60405161011a9190610dd4565b60405180910390f35b61013d60048036038101906101389190610c6f565b610527565b60405161014b929190610e8e565b60405180910390f35b61015c61063d565b6040516101699190610ebe565b60405180910390f35b61018c60048036038101906101879190610cfa565b610643565b6040516101999190610ebe565b60405180910390f35b6101bc60048036038101906101b7919061100e565b610706565b005b6101c6610885565b005b6101d061094a565b005b6101da610a0f565b6040516101e79190611066565b60405180910390f35b6101f8610a33565b6040516102059190610ebe565b60405180910390f35b61022860048036038101906102239190610cfa565b610a39565b005b6001600281111561023e5761023d610d5d565b5b600060149054906101000a900460ff1660028111156102605761025f610d5d565b5b146102a0576040517f08c379a0000000000000000000000000000000000000000000000000000000008152600401610297906110cd565b60405180910390fd5b600360003373ffffffffffffffffffffffffffffffffffffffff1673ffffffffffffffffffffffffffffffffffffffff16815260200190815260200160002060009054906101000a900460ff1661032c576040517f08c379a000000000000000000000000000000000000000000000000000000000815260040161032390611139565b60405180910390fd5b600260003373ffffffffffffffffffffffffffffffffffffffff1673ffffffffffffffffffffffffffffffffffffffff16815260200190815260200160002060009054906101000a900460ff16156103b9576040517f08c379a00000000000000000000000000000000000000000000000000000000081526004016103b0906111a5565b60405180910390fd5b600081101580156103cb575060045481105b61040a576040517f08c379a000000000000000000000000000000000000000000000000000000000815260040161040190611211565b60405180910390fd5b60016000828152602001908152602001600020600201600081548092919061043190611260565b91905055506001600260003373ffffffffffffffffffffffffffffffffffffffff1673ffffffffffffffffffffffffffffffffffffffff16815260200190815260200160002060006101000a81548160ff021916908315150217905550807f7f511e347bf51eed3be100b3194247d5207f05f3b33de7d31e3e8ee73199a04960405160405180910390a250565b6000600260008373ffffffffffffffffffffffffffffffffffffffff1673ffffffffffffffffffffffffffffffffffffffff16815260200190815260200160002060009054906101000a900460ff169050919050565b600060149054906101000a900460ff1681565b6060600080831015801561053c575060045483105b61057b576040517f08c379a000000000000000000000000000000000000000000000000000000000815260040161057290611211565b60405180910390fd5b6001600084815260200190815260200160002060010160016000858152602001908152602001600020600201548180546105b4906112d7565b80601f01602080910402602001604051908101604052809291908181526020018280546105e0906112d7565b801561062d5780601f106106025761010080835404028352916020019161062d565b820191906000526020600020905b81548152906001019060200180831161061057829003601f168201915b5050505050915091509150915091565b60045481565b60008173ffffffffffffffffffffffffffffffffffffffff1660008054906101000a900473ffffffffffffffffffffffffffffffffffffffff1673ffffffffffffffffffffffffffffffffffffffff16036106a15760019050610701565b600360008373ffffffffffffffffffffffffffffffffffffffff1673ffffffffffffffffffffffffffffffffffffffff16815260200190815260200160002060009054906101000a900460ff16156106fc5760029050610701565b600390505b919050565b3373ffffffffffffffffffffffffffffffffffffffff1660008054906101000a900473ffffffffffffffffffffffffffffffffffffffff1673ffffffffffffffffffffffffffffffffffffffff1614610794576040517f08c379a000000000000000000000000000000000000000000000000000000000815260040161078b90611354565b60405180910390fd5b600060028111156107a8576107a7610d5d565b5b600060149054906101000a900460ff1660028111156107ca576107c9610d5d565b5b1461080a576040517f08c379a0000000000000000000000000000000000000000000000000000000008152600401610801906113c0565b60405180910390fd5b60405180606001604052806004548152602001828152602001600081525060016000600454815260200190815260200160002060008201518160000155602082015181600101908161085c919061158c565b50604082015181600201559050506004600081548092919061087d90611260565b919050555050565b60008054906101000a900473ffffffffffffffffffffffffffffffffffffffff1673ffffffffffffffffffffffffffffffffffffffff163373ffffffffffffffffffffffffffffffffffffffff16146108dd57600080fd5b600160028111156108f1576108f0610d5d565b5b600060149054906101000a900460ff16600281111561091357610912610d5d565b5b1461091d57600080fd5b6002600060146101000a81548160ff0219169083600281111561094357610942610d5d565b5b0217905550565b60008054906101000a900473ffffffffffffffffffffffffffffffffffffffff1673ffffffffffffffffffffffffffffffffffffffff163373ffffffffffffffffffffffffffffffffffffffff16146109a257600080fd5b600060028111156109b6576109b5610d5d565b5b600060149054906101000a900460ff1660028111156109d8576109d7610d5d565b5b146109e257600080fd5b6001600060146101000a81548160ff02191690836002811115610a0857610a07610d5d565b5b0217905550565b60008054906101000a900473ffffffffffffffffffffffffffffffffffffffff1681565b60055481565b3373ffffffffffffffffffffffffffffffffffffffff1660008054906101000a900473ffffffffffffffffffffffffffffffffffffffff1673ffffffffffffffffffffffffffffffffffffffff1614610ac7576040517f08c379a0000000000000000000000000000000000000000000000000000000008152600401610abe906116aa565b60405180910390fd5b600360008273ffffffffffffffffffffffffffffffffffffffff1673ffffffffffffffffffffffffffffffffffffffff16815260200190815260200160002060009054906101000a900460ff1615610b54576040517f08c379a0000000000000000000000000000000000000000000000000000000008152600401610b4b90611716565b60405180910390fd5b60006002811115610b6857610b67610d5d565b5b600060149054906101000a900460ff166002811115610b8a57610b89610d5d565b5b14610bca576040517f08c379a0000000000000000000000000000000000000000000000000000000008152600401610bc1906117a8565b60405180910390fd5b6001600360008373ffffffffffffffffffffffffffffffffffffffff1673ffffffffffffffffffffffffffffffffffffffff16815260200190815260200160002060006101000a81548160ff02191690831515021790555050565b6000604051905090565b600080fd5b600080fd5b6000819050919050565b610c4c81610c39565b8114610c5757600080fd5b50565b600081359050610c6981610c43565b92915050565b600060208284031215610c8557610c84610c2f565b5b6000610c9384828501610c5a565b91505092915050565b600073ffffffffffffffffffffffffffffffffffffffff82169050919050565b6000610cc782610c9c565b9050919050565b610cd781610cbc565b8114610ce257600080fd5b50565b600081359050610cf481610cce565b92915050565b600060208284031215610d1057610d0f610c2f565b5b6000610d1e84828501610ce5565b91505092915050565b60008115159050919050565b610d3c81610d27565b82525050565b6000602082019050610d576000830184610d33565b92915050565b7f4e487b7100000000000000000000000000000000000000000000000000000000600052602160045260246000fd5b60038110610d9d57610d9c610d5d565b5b50565b6000819050610dae82610d8c565b919050565b6000610dbe82610da0565b9050919050565b610dce81610db3565b82525050565b6000602082019050610de96000830184610dc5565b92915050565b600081519050919050565b600082825260208201905092915050565b60005b83811015610e29578082015181840152602081019050610e0e565b60008484015250505050565b6000601f19601f8301169050919050565b6000610e5182610def565b610e5b8185610dfa565b9350610e6b818560208601610e0b565b610e7481610e35565b840191505092915050565b610e8881610c39565b82525050565b60006040820190508181036000830152610ea88185610e46565b9050610eb76020830184610e7f565b9392505050565b6000602082019050610ed36000830184610e7f565b92915050565b600080fd5b600080fd5b7f4e487b7100000000000000000000000000000000000000000000000000000000600052604160045260246000fd5b610f1b82610e35565b810181811067ffffffffffffffff82111715610f3a57610f39610ee3565b5b80604052505050565b6000610f4d610c25565b9050610f598282610f12565b919050565b600067ffffffffffffffff821115610f7957610f78610ee3565b5b610f8282610e35565b9050602081019050919050565b82818337600083830152505050565b6000610fb1610fac84610f5e565b610f43565b905082815260208101848484011115610fcd57610fcc610ede565b5b610fd8848285610f8f565b509392505050565b600082601f830112610ff557610ff4610ed9565b5b8135611005848260208601610f9e565b91505092915050565b60006020828403121561102457611023610c2f565b5b600082013567ffffffffffffffff81111561104257611041610c34565b5b61104e84828501610fe0565b91505092915050565b61106081610cbc565b82525050565b600060208201905061107b6000830184611057565b92915050565b7f456c656374696f6e206973206e6f7420696e2070726f67726573730000000000600082015250565b60006110b7601b83610dfa565b91506110c282611081565b602082019050919050565b600060208201905081810360008301526110e6816110aa565b9050919050565b7f4e6f6e20617574686f726973656420757365722063616e6e6f7420766f746500600082015250565b6000611123601f83610dfa565b915061112e826110ed565b602082019050919050565b6000602082019050818103600083015261115281611116565b9050919050565b7f596f75206861766520616c726561647920766f74656400000000000000000000600082015250565b600061118f601683610dfa565b915061119a82611159565b602082019050919050565b600060208201905081810360008301526111be81611182565b9050919050565b7f496e76616c69642063616e646964617465204944000000000000000000000000600082015250565b60006111fb601483610dfa565b9150611206826111c5565b602082019050919050565b6000602082019050818103600083015261122a816111ee565b9050919050565b7f4e487b7100000000000000000000000000000000000000000000000000000000600052601160045260246000fd5b600061126b82610c39565b91507fffffffffffffffffffffffffffffffffffffffffffffffffffffffffffffffff820361129d5761129c611231565b5b600182019050919050565b7f4e487b7100000000000000000000000000000000000000000000000000000000600052602260045260246000fd5b600060028204905060018216806112ef57607f821691505b602082108103611302576113016112a8565b5b50919050565b7f4f6e6c79206f776e65722063616e206164642063616e64696461746573000000600082015250565b600061133e601d83610dfa565b915061134982611308565b602082019050919050565b6000602082019050818103600083015261136d81611331565b9050919050565b7f456c656374696f6e2068617320616c7265616479207374617274656400000000600082015250565b60006113aa601c83610dfa565b91506113b582611374565b602082019050919050565b600060208201905081810360008301526113d98161139d565b9050919050565b60008190508160005260206000209050919050565b60006020601f8301049050919050565b600082821b905092915050565b6000600883026114427fffffffffffffffffffffffffffffffffffffffffffffffffffffffffffffffff82611405565b61144c8683611405565b95508019841693508086168417925050509392505050565b6000819050919050565b600061148961148461147f84610c39565b611464565b610c39565b9050919050565b6000819050919050565b6114a38361146e565b6114b76114af82611490565b848454611412565b825550505050565b600090565b6114cc6114bf565b6114d781848461149a565b505050565b5b818110156114fb576114f06000826114c4565b6001810190506114dd565b5050565b601f82111561154057611511816113e0565b61151a846113f5565b81016020851015611529578190505b61153d611535856113f5565b8301826114dc565b50505b505050565b600082821c905092915050565b600061156360001984600802611545565b1980831691505092915050565b600061157c8383611552565b9150826002028217905092915050565b61159582610def565b67ffffffffffffffff8111156115ae576115ad610ee3565b5b6115b882546112d7565b6115c38282856114ff565b600060209050601f8311600181146115f657600084156115e4578287015190505b6115ee8582611570565b865550611656565b601f198416611604866113e0565b60005b8281101561162c57848901518255600182019150602085019450602081019050611607565b868310156116495784890151611645601f891682611552565b8355505b6001600288020188555050505b505050505050565b7f4f6e6c79206f776e65722063616e2061646420766f7465720000000000000000600082015250565b6000611694601883610dfa565b915061169f8261165e565b602082019050919050565b600060208201905081810360008301526116c381611687565b9050919050565b7f566f74657220616c726561647920616464656400000000000000000000000000600082015250565b6000611700601383610dfa565b915061170b826116ca565b602082019050919050565b6000602082019050818103600083015261172f816116f3565b9050919050565b7f566f7465722063616e277420626520616464656420616674657220656c65637460008201527f696f6e2073746172746564000000000000000000000000000000000000000000602082015250565b6000611792602b83610dfa565b915061179d82611736565b604082019050919050565b600060208201905081810360008301526117c181611785565b905091905056fea264697066735822122052ecfd706de11bd9db2b5d5a7345fa73b2cab32152c9f364c5a41faecb52f84464736f6c63430008140033",
  "linkReferences": {},
  "deployedLinkReferences": {}
}